{
  "contractName": "SampleVoting",
  "abi": [
    {
      "inputs": [],
      "payable": false,
      "stateMutability": "nonpayable",
      "type": "constructor"
    },
    {
      "constant": true,
      "inputs": [
        {
          "internalType": "uint256",
          "name": "",
          "type": "uint256"
        }
      ],
      "name": "candidates",
      "outputs": [
        {
          "internalType": "uint256",
          "name": "id",
          "type": "uint256"
        },
        {
          "internalType": "string",
          "name": "name",
          "type": "string"
        },
        {
          "internalType": "uint256",
          "name": "voteCount",
          "type": "uint256"
        }
      ],
      "payable": false,
      "stateMutability": "view",
      "type": "function"
    },
    {
      "constant": true,
      "inputs": [],
      "name": "candidatesCount",
      "outputs": [
        {
          "internalType": "uint256",
          "name": "",
          "type": "uint256"
        }
      ],
      "payable": false,
      "stateMutability": "view",
      "type": "function"
    },
    {
      "constant": true,
      "inputs": [
        {
          "internalType": "uint256",
          "name": "",
          "type": "uint256"
        }
      ],
      "name": "voters",
      "outputs": [
        {
          "internalType": "uint256",
          "name": "aadhar",
          "type": "uint256"
        },
        {
          "internalType": "bool",
          "name": "registered",
          "type": "bool"
        },
        {
          "internalType": "bool",
          "name": "voted",
          "type": "bool"
        },
        {
          "internalType": "string",
          "name": "name",
          "type": "string"
        },
        {
          "internalType": "string",
          "name": "email",
          "type": "string"
        },
        {
          "internalType": "uint256",
          "name": "mobile_no",
          "type": "uint256"
        }
      ],
      "payable": false,
      "stateMutability": "view",
      "type": "function"
    },
    {
      "constant": false,
      "inputs": [
        {
          "internalType": "uint256",
          "name": "aadhar",
          "type": "uint256"
        },
        {
          "internalType": "string",
          "name": "name",
          "type": "string"
        },
        {
          "internalType": "string",
          "name": "email",
          "type": "string"
        },
        {
          "internalType": "uint256",
          "name": "mob",
          "type": "uint256"
        }
      ],
      "name": "register",
      "outputs": [],
      "payable": false,
      "stateMutability": "nonpayable",
      "type": "function"
    },
    {
      "constant": false,
      "inputs": [
        {
          "internalType": "uint256",
          "name": "_candidateId",
          "type": "uint256"
        },
        {
          "internalType": "uint256",
          "name": "aadhar",
          "type": "uint256"
        }
      ],
      "name": "vote",
      "outputs": [],
      "payable": false,
      "stateMutability": "nonpayable",
      "type": "function"
    }
  ],
  "bytecode": "0x608060405234801561001057600080fd5b506100556040518060400160405280600881526020017f53686976616e73680000000000000000000000000000000000000000000000008152506100e260201b60201c565b6100996040518060400160405280600681526020017f48617264696b00000000000000000000000000000000000000000000000000008152506100e260201b60201c565b6100dd6040518060400160405280600781526020017f55746b61727368000000000000000000000000000000000000000000000000008152506100e260201b60201c565b610202565b604051806060016040528060015481526020018281526020016000815250600080600154815260200190815260200160002060008201518160000155602082015181600101908051906020019061013a92919061015d565b506040820151816002015590505060016000815480929190600101919050555050565b828054600181600116156101000203166002900490600052602060002090601f016020900481019282601f1061019e57805160ff19168380011785556101cc565b828001600101855582156101cc579182015b828111156101cb5782518255916020019190600101906101b0565b5b5090506101d991906101dd565b5090565b6101ff91905b808211156101fb5760008160009055506001016101e3565b5090565b90565b61099d806102116000396000f3fe608060405234801561001057600080fd5b50600436106100575760003560e01c80632d35a8a21461005c5780633477ee2e1461007a578063b384abef1461012f578063da58c7d914610167578063e1b0d5e61461029e575b600080fd5b610064610404565b6040518082815260200191505060405180910390f35b6100a66004803603602081101561009057600080fd5b810190808035906020019092919050505061040a565b6040518084815260200180602001838152602001828103825284818151815260200191508051906020019080838360005b838110156100f25780820151818401526020810190506100d7565b50505050905090810190601f16801561011f5780820380516001836020036101000a031916815260200191505b5094505050505060405180910390f35b6101656004803603604081101561014557600080fd5b8101908080359060200190929190803590602001909291905050506104cc565b005b6101936004803603602081101561017d57600080fd5b81019080803590602001909291905050506105c2565b6040518087815260200186151515158152602001851515151581526020018060200180602001848152602001838103835286818151815260200191508051906020019080838360005b838110156101f75780820151818401526020810190506101dc565b50505050905090810190601f1680156102245780820380516001836020036101000a031916815260200191505b50838103825285818151815260200191508051906020019080838360005b8381101561025d578082015181840152602081019050610242565b50505050905090810190601f16801561028a5780820380516001836020036101000a031916815260200191505b509850505050505050505060405180910390f35b610402600480360360808110156102b457600080fd5b8101908080359060200190929190803590602001906401000000008111156102db57600080fd5b8201836020820111156102ed57600080fd5b8035906020019184600183028401116401000000008311171561030f57600080fd5b91908080601f016020809104026020016040519081016040528093929190818152602001838380828437600081840152601f19601f8201169050808301925050505050505091929192908035906020019064010000000081111561037257600080fd5b82018360208201111561038457600080fd5b803590602001918460018302840111640100000000831117156103a657600080fd5b91908080601f016020809104026020016040519081016040528093929190818152602001838380828437600081840152601f19601f82011690508083019250505050505050919291929080359060200190929190505050610748565b005b60015481565b6000602052806000526040600020600091509050806000015490806001018054600181600116156101000203166002900480601f0160208091040260200160405190810160405280929190818152602001828054600181600116156101000203166002900480156104bc5780601f10610491576101008083540402835291602001916104bc565b820191906000526020600020905b81548152906001019060200180831161049f57829003601f168201915b5050505050908060020154905083565b600115156002600083815260200190815260200160002060010160019054906101000a900460ff161515141561056a576040517f08c379a00000000000000000000000000000000000000000000000000000000081526004018080602001828103825260138152602001807f416c72656164792063617374656420566f74650000000000000000000000000081525060200191505060405180910390fd5b60016002600083815260200190815260200160002060010160016101000a81548160ff021916908315150217905550600080838152602001908152602001600020600201600081548092919060010191905055505050565b60026020528060005260406000206000915090508060000154908060010160009054906101000a900460ff16908060010160019054906101000a900460ff1690806002018054600181600116156101000203166002900480601f01602080910402602001604051908101604052809291908181526020018280546001816001161561010002031660029004801561069a5780601f1061066f5761010080835404028352916020019161069a565b820191906000526020600020905b81548152906001019060200180831161067d57829003601f168201915b505050505090806003018054600181600116156101000203166002900480601f0160208091040260200160405190810160405280929190818152602001828054600181600116156101000203166002900480156107385780601f1061070d57610100808354040283529160200191610738565b820191906000526020600020905b81548152906001019060200180831161071b57829003601f168201915b5050505050908060040154905086565b600115156002600086815260200190815260200160002060010160009054906101000a900460ff16151514156107e6576040517f08c379a00000000000000000000000000000000000000000000000000000000081526004018080602001828103825260128152602001807f416c72656164792072656769737465726564000000000000000000000000000081525060200191505060405180910390fd5b6040518060c0016040528085815260200160011515815260200160001515815260200184815260200183815260200182815250600260008681526020019081526020016000206000820151816000015560208201518160010160006101000a81548160ff02191690831515021790555060408201518160010160016101000a81548160ff02191690831515021790555060608201518160020190805190602001906108929291906108c3565b5060808201518160030190805190602001906108af9291906108c3565b5060a0820151816004015590505050505050565b828054600181600116156101000203166002900490600052602060002090601f016020900481019282601f1061090457805160ff1916838001178555610932565b82800160010185558215610932579182015b82811115610931578251825591602001919060010190610916565b5b50905061093f9190610943565b5090565b61096591905b80821115610961576000816000905550600101610949565b5090565b9056fea265627a7a7231582007f907f3e352bc69a7a27360a7467c1f50701dcfa945d8de433326d9b04a229f64736f6c634300050c0032",
  "source": "pragma solidity ^0.5.12;\n\ncontract SampleVoting {\n    // cadidate info struct.\n    struct Candidate {\n        uint id;\n        string name;\n        uint voteCount;\n    }\n\n    // voters info struct\n    struct Voter {\n        uint aadhar;\n        bool registered;\n        bool voted;\n\n        string name;\n        string email;\n        uint mobile_no;\n    }\n\n    // Store Candidates\n    mapping(uint => Candidate) public candidates;\n    // Store Candidates Count\n    uint public candidatesCount;\n\n    \n    //mapping of aadhar to a boolean\n    mapping(uint => Voter) public voters;\n\n    constructor () public {\n        addCandidate(\"Shivansh\");\n        addCandidate(\"Hardik\");\n        addCandidate(\"Utkarsh\");\n    }\n\n    function addCandidate (string memory _name) private {\n        candidates[candidatesCount] = Candidate(candidatesCount, _name, 0);\n        candidatesCount ++;\n    }\n    function register(uint aadhar,string memory name,string memory email,uint mob) public {\n\n        //check if already registered\n        if(voters[aadhar].registered==true) {\n            revert(\"Already registered\");\n        }\n        voters[aadhar] = Voter(aadhar,true,false,name,email,mob);\n\n\n    }\n    //functuion to caste vote\n    function vote (uint _candidateId,uint aadhar) public {\n\n        //check if already voted\n        if(voters[aadhar].voted==true) {\n            revert(\"Already casted Vote\");\n        }\n        //updating the voter\n        voters[aadhar].voted = true;\n        //incrementing the vote\n        candidates[_candidateId].voteCount++;\n\n    }\n}",
  "sourcePath": "/home/anking/NJACK/SafeVote/new/contracts/Election.sol",
  "compiler": {
    "name": "solc",
    "version": "0.5.12+commit.7709ece9.Emscripten.clang"
  },
  "schemaVersion": "3.0.20",
  "updatedAt": "2019-12-22T16:05:05.727Z",
  "devdoc": {
    "methods": {}
  },
  "userdoc": {
    "methods": {}
  }
}